:100000000C9463000C948B000C948B000C948B006C
:100010000C948B000C948B000C948B000C948B0034
:100020000C948B000C948B000C948B000C948B0024
:100030000C948B000C948B000C948B000C948B0014
:100040000C94EB050C948B000C9487070C94D5074B
:100050000C948B000C948B000C948B000C948B00F4
:100060000C948B000C948B000000000024002700EF
:100070002A0000000000250028002B0000000000DE
:1000800023002600290004040404040404040202DA
:100090000202020203030303030301020408102007
:1000A0004080010204081020010204081020000012
:1000B0000007000201000003040600000000000029
:1000C00000008D00410911241FBECFEFD8E0DEBF34
:1000D000CDBF11E0A0E0B1E0E8EEF6E102C005908E
:1000E0000D92AC34B107D9F712E0ACE4B1E001C035
:1000F0001D92A635B107E1F710E0C6ECD0E004C0D0
:100100002297FE010E946E0BC23CD107C9F70E94E4
:1001100097090C94720B0C940000CF92EF920F93FE
:100120008CE491E06CE04BE025E004E053E0E52E48
:1001300032E0C32E0E94B2050F91EF90CF90089548
:100140002F923F924F925F926F927F928F929F92E7
:10015000AF92BF92CF92DF92EF92FF920F931F93D5
:10016000CF93DF93809161010E94D1069093640147
:1001700080936301809124010E94D10690936601CF
:1001800080936501809126010E94D10690936801B9
:1001900080936701809128010E94D10690936A01A3
:1001A0008093690100D000D0609163017091640177
:1001B000882777FD8095982FADB7BEB711961D9211
:1001C0001D921D921C92149720E030E040E050E018
:1001D000FFEFEF2EF3E0FF2E012D112DE8E8AE2EFC
:1001E000E3E1BE2EC12CD12C0E94C70A70936C0192
:1001F00060936B016091650170916601882777FDBE
:100200008095982FEDB7FEB7118212821382148267
:1002100020E030E040E050E00E94C70A70936E0199
:1002200060936D016091670170916801882777FD87
:100230008095982FADB7BEB711961D921D921D9255
:100240001C92149720E030E040E050E00E94C70A82
:100250007093700160936F016091690170916A0100
:10026000882777FD8095982FEDB7FEB7118212820F
:100270001382148220E030E040E050E00E94C70A80
:10028000EB01709372016093710100916B01109109
:100290006C010F900F900F900F900115110581F0D8
:1002A000C0906D01D0906E01C114D10449F0A090AE
:1002B0006F01B0907001A114B10411F0672B59F4D3
:1002C0008CE491E00E94F4048CE491E060E071E041
:1002D0000E94C40A67C268E8E62E63E1F62EB70101
:1002E000601B710B882777FD8095982F20E137E2FE
:1002F00040E050E00E94100B9801442737FD4095E4
:10030000542F0E942F0B39014A012093730130931F
:1003100074014093750150937601B7016C197D0902
:10032000882777FD8095982F20E137E240E050E064
:100330000E94100B9601442737FD4095542F0E94D0
:100340002F0B19012A0120937701309378014093F4
:10035000790150937A01B7016A197B09882777FDE3
:100360008095982F20E137E240E050E00E94100B8A
:100370009501442737FD4095542F0E942F0B5901BA
:100380006A0120937B0130937C0140937D0150935F
:100390007E01EC1AFD0A0027F7FC0095102FC8011A
:1003A000B70120E137E240E050E00E94100B9E01CF
:1003B000442737FD4095542F0E942F0B79018A0165
:1003C00020937F01309380014093810150938201FB
:1003D00060E472E48FE090E0A40193010E942F0B8F
:1003E00039014A01209383013093840140938501B0
:1003F0005093860160E472E48FE090E0A2019101E5
:100400000E942F0B19012A01209387013093880144
:100410004093890150938A0160E472E48FE090E098
:10042000A60195010E942F0B59016A0120938B01AF
:1004300030938C0140938D0150938E0160E472E4FF
:100440008FE090E0A80197010E942F0BC901DA010B
:1004500080938F0190939001A0939101B0939201AA
:10046000F9EE6F16F3E07F06F0E08F06F0E09F06EE
:10047000C0F029EE221623E0320620E0420620E0FA
:10048000520678F0E9EEAE16E3E0BE06E0E0CE06F6
:10049000E0E0DE0630F0895E9340A040B04008F016
:1004A00043C08CE491E00E94F40460918301709158
:1004B0008401809185019091860120E530E040E043
:1004C00050E00E942F0B39014A0160918701709121
:1004D00088018091890190918A0120E530E040E017
:1004E00050E00E942F0B59016A0160918B017091BD
:1004F0008C0180918D0190918E0120E530E040E0EB
:1005000050E00E942F0B79018A0160918F01709158
:100510009001809191019091920120E530E040E0BE
:1005200050E00E942F0B52C08CE491E00E94F40432
:100530006091830170918401809185019091860181
:10054000685E7340804090402EE130E040E050E033
:100550000E94510B39014A01609187017091880115
:100560008091890190918A01685E7340804090403B
:100570002EE130E040E050E00E94510B59016A0149
:1005800060918B0170918C0180918D0190918E0111
:10059000685E7340804090402EE130E040E050E0E3
:1005A0000E94510B79018A0160918F017091900135
:1005B0008091910190919201685E734080409040DB
:1005C0002EE130E040E050E00E94510B8AE090E0E4
:1005D000A0E0B0E0680E791E8A1E9B1E6092930117
:1005E000709294018092950190929601A80EB91E86
:1005F000CA1EDB1EA0929701B0929801C092990189
:10060000D0929A01E80EF91E0A1F1B1FE0929B016F
:10061000F0929C0100939D0110939E01265F3F4F35
:100620004F4F5F4F20939F013093A0014093A10152
:100630005093A2018CE491E060E040E00E94C50488
:100640008CE491E06CE071E00E94C40A4091930157
:100650005091940160919501709196018CE491E024
:100660002AE030E00E94700A8CE491E060E041E012
:100670000E94C5048CE491E062E171E00E94C40A2A
:1006800040919701509198016091990170919A0160
:100690008CE491E02AE030E00E94700A8CE491E062
:1006A00060E042E00E94C5048CE491E068E171E002
:1006B0000E94C40A40919B0150919C0160919D0150
:1006C00070919E018CE491E02AE030E00E94700A73
:1006D0008CE491E060E043E00E94C5048CE491E08A
:1006E0006EE171E00E94C40A40919F015091A00107
:1006F0006091A1017091A2018CE491E02AE030E0C8
:100700000E94700A84E392E06CE071E00E94C40AE7
:1007100040919301509194016091950170919601DF
:1007200084E392E02AE030E00E94700A84E392E0E1
:1007300062E171E00E94C40A4091970150919801D2
:100740006091990170919A0184E392E02AE030E08F
:100750000E94700A84E392E068E171E00E94C40A9A
:1007600040919B0150919C0160919D0170919E016F
:1007700084E392E02AE030E00E94700A84E392E091
:100780006EE171E00E94C40A40919F015091A00166
:100790006091A1017091A20184E392E02AE030E02F
:1007A0000E94B00A68EE73E080E090E00E94330699
:1007B000DF91CF911F910F91FF90EF90DF90CF903D
:1007C000BF90AF909F908F907F906F905F904F9071
:1007D0003F902F9008958CE491E060E144E020E0A8
:1007E0000E94FC0484E392E040E855E260E070E09F
:1007F0000E94100808950F931F938C01FC018681BD
:1008000060E00E94320781E090E00E948C06F801CF
:10081000868161E00E94320781E090E00E948C06B0
:10082000F801868160E00E94320784E690E00E9431
:100830008C061F910F910895CF92DF92EF92FF9255
:100840000F931F93CF93DF93D82EC92E282F392FC4
:10085000C9018C01C0E0D0E0E62EFF24F8018781B9
:1008600061E00E94F306B7010C2E02C075956795F2
:100870000A94E2F76170F80187810E94320721969D
:100880000F5F1F4FC830D10549F78D2D9C2D0E9459
:10089000FB03DF91CF911F910F91FF90EF90DF90BD
:1008A000CF900895CF92DF92EF92FF920F931F9314
:1008B000CF93DF93D82EC92E282F392FC9018C0151
:1008C000C0E0D0E0E62EFF24F801878161E00E94BD
:1008D000F306B7010C2E02C0759567950A94E2F7EE
:1008E0006170F80187810E94320721960F5F1F4FC8
:1008F000C430D10549F78D2D9C2D0E94FB03DF915B
:10090000CF911F910F91FF90EF90DF90CF900895BE
:100910001F93CF93DF93EC01162F8C81642F0E94DD
:1009200032078D818F3F19F060E00E9432078F857A
:1009300084FF05C0CE01612F0E941C040EC0612FF0
:1009400070E084E0759567958A95E1F7CE010E9485
:100950005204CE01612F0E945204DF91CF911F916A
:10096000089541E00E94880481E090E0089540E00D
:100970000E9488040895FC016089862F8460808B22
:100980006C60CF010E94B7040895DF93CF93CDB779
:10099000DEB728970FB6F894DEBF0FBECDBF9C011F
:1009A000FE013196A3E3B1E088E00D900192815001
:1009B000E1F7F9018389481710F0482F4150E42FDF
:1009C000F0E0EE0FFF1FEC0FFD1F8181680F6068E4
:1009D000C9010E94B70428960FB6F894DEBF0FBE77
:1009E000CDBFCF91DF91089561E00E94B70480ED03
:1009F00097E00E948C060895CF93DF93EC0142307C
:100A000018F08F8588608F874B8B1C8A222329F0F2
:100A1000413019F48F8584608F8780E593EC0E94C4
:100A20008C068C8160E00E9432078E8160E00E941B
:100A300032078D818F3F19F060E00E9432076F8589
:100A400064FD1DC0CE0163E00E94520484E991E17F
:100A50000E948C06CE0163E00E94520484E991E179
:100A60000E948C06CE0163E00E94520486E990E069
:100A70000E948C06CE0162E00E94520416C06062A1
:100A8000CE010E94B70484E991E10E948C066F8533
:100A90006062CE010E94B70486E990E00E948C0655
:100AA0006F856062CE010E94B7046F856062CE01DF
:100AB0000E94B70484E0888BCE010E94BB04CE0163
:100AC0000E94F40482E0898BCE0166E00E94B704A4
:100AD000DF91CF9108956F927F928F92AF92CF92D4
:100AE000EF920F931F93DF93CF93CDB7DEB73C0107
:100AF000162F842FF301448325830683E782C08663
:100B0000A18682869D8593879E8594879F859587FC
:100B10009889968761E00E94F306F30185818F3FF3
:100B200019F061E00E94F306F301868161E00E9402
:100B3000F306112319F0F301178603C080E1F301D6
:100B40008787C30160E141E020E00E94FC04CF916F
:100B5000DF911F910F91EF90CF90AF908F907F908A
:100B60006F9008958F92AF92CF92EF920F931F9351
:100B7000CF93DF93DC01362F542F722F102FAE2C22
:100B80008C2C13961C921E9212978FE291E0119674
:100B90009C938E9300D000D0EDB7FEB73196CDB7C1
:100BA000DEB71982118212821382CD0161E0432FD8
:100BB0002FEF052FE72EC12E0E946B050F900F908F
:100BC0000F900F90DF91CF911F910F91EF90CF90E9
:100BD000AF908F9008951F920F920FB60F9211242D
:100BE0002F933F938F939F93AF93BF938091A701D0
:100BF0009091A801A091A901B091AA013091AB01F7
:100C00000196A11DB11D232F2D5F2D3720F02D57EB
:100C10000196A11DB11D2093AB018093A701909374
:100C2000A801A093A901B093AA018091A30190917A
:100C3000A401A091A501B091A6010196A11DB11D2D
:100C40008093A3019093A401A093A501B093A60162
:100C5000BF91AF919F918F913F912F910F900FBEB8
:100C60000F901F9018959B01AC017FB7F89480916D
:100C7000A3019091A401A091A501B091A60166B530
:100C8000A89B05C06F3F19F00196A11DB11D7FBF44
:100C9000BA2FA92F982F8827860F911DA11DB11D4E
:100CA00062E0880F991FAA1FBB1F6A95D1F7BC018C
:100CB0002DC0FFB7F8948091A3019091A401A09159
:100CC000A501B091A601E6B5A89B05C0EF3F19F0BC
:100CD0000196A11DB11DFFBFBA2FA92F982F8827FC
:100CE0008E0F911DA11DB11DE2E0880F991FAA1F53
:100CF000BB1FEA95D1F7861B970B885E9340C8F21D
:100D0000215030404040504068517C4F2115310502
:100D10004105510571F60895019739F0880F991F23
:100D2000880F991F02970197F1F70895789484B579
:100D3000826084BD84B5816084BD85B5826085BDD7
:100D400085B5816085BDEEE6F0E0808181608083BD
:100D5000E1E8F0E0108280818260808380818160A0
:100D60008083E0E8F0E0808181608083E1EBF0E067
:100D7000808184608083E0EBF0E08081816080830B
:100D8000EAE7F0E0808184608083808182608083F4
:100D90008081816080838081806880831092C1001F
:100DA0000895982F8E3008F09E50977080912A01F8
:100DB0008295880F880F807C892B80937C0080919E
:100DC0007A00806480937A0080917A0086FDFCCF5F
:100DD0002091780040917900942F80E030E0282B1A
:100DE000392BC9010895CF93DF93482F50E0CA01F2
:100DF00086569F4FFC0134914A575F4FFA01849108
:100E0000882369F190E0880F991FFC01E859FF4F92
:100E1000A591B491FC01EE58FF4FC591D491662382
:100E200051F42FB7F8948C91932F909589238C933C
:100E3000888189230BC0623061F42FB7F8948C91BC
:100E4000932F909589238C938881832B88832FBF40
:100E500006C09FB7F8948C91832B8C939FBFDF9132
:100E6000CF910895482F50E0CA0182559F4FFC0151
:100E70002491CA0186569F4FFC0194914A575F4FB7
:100E8000FA013491332309F440C0222351F1233075
:100E900071F0243028F42130A1F0223011F514C073
:100EA0002630B1F02730C1F02430D9F404C080914D
:100EB00080008F7703C0809180008F7D80938000B9
:100EC00010C084B58F7702C084B58F7D84BD09C002
:100ED0008091B0008F7703C08091B0008F7D8093A8
:100EE000B000E32FF0E0EE0FFF1FEE58FF4FA5918B
:100EF000B4912FB7F894662321F48C9190958923AF
:100F000002C08C91892B8C932FBF089508951F9256
:100F10000F920FB60F9211242F933F934F938F93FD
:100F20009F93EF93FF938091C00082FD1DC040917D
:100F3000C6002091EC013091ED012F5F3F4F2F73E0
:100F400030708091EE019091EF012817390771F010
:100F5000E091EC01F091ED01E455FE4F40833093B8
:100F6000ED012093EC0102C08091C600FF91EF914A
:100F70009F918F914F913F912F910F900FBE0F90A6
:100F80001F901895E0914002F0914102E05CFF4F04
:100F90008191919120813181821B930B8F7390708D
:100FA000892B11F00E94860708951F920F920FB6A9
:100FB0000F9211242F933F938F939F93EF93FF935F
:100FC00020913002309131028091320290913302AF
:100FD0002817390731F48091C1008F7D8093C100BB
:100FE00014C0E0913202F0913302E051FE4F2081B3
:100FF000809132029091330201968F73907090939A
:101000003302809332022093C600FF91EF919F91AB
:101010008F913F912F910F900FBE0F901F901895B9
:10102000AF92BF92DF92EF92FF920F931F93CF93F5
:10103000DF93EC017A018B01DD24403081EE58070B
:1010400080E0680780E0780711F0DD24D39491E018
:10105000A92EB12CEC89FD89DD2069F0C50108A01D
:1010600002C0880F991F0A94E2F7808360E079E05C
:101070008DE390E005C0108260E874E88EE190E0B6
:10108000A80197010E942F0B215030404040504052
:10109000569547953795279580E12030380720F001
:1010A000DD2011F0DD24D6CFE889F9893083EA8983
:1010B000FB89208319A2EE89FF89408121E030E07D
:1010C000C9010C8C02C0880F991F0A94E2F7482BC3
:1010D0004083EE89FF894081C9010D8C02C0880FD1
:1010E000991F0A94E2F7482B4083EE89FF894081DB
:1010F000C9010E8C02C0880F991F0A94E2F7482B91
:101100004083EE89FF8980810F8C02C0220F331F3C
:101110000A94E2F7209528232083DF91CF911F9135
:101120000F91FF90EF90DF90BF90AF900895DC019A
:101130001C96ED91FC911D97E05CFF4F2191319140
:1011400080819181281B390B2F733070C90108955C
:10115000DC011C96ED91FC911D97E05CFF4F208116
:101160003181E054F040DF01AE5BBF4F8D919C9127
:1011700011972817390719F42FEF3FEF07C08D910A
:101180009C91E80FF91F8081282F30E0C901089554
:10119000DC011C96ED91FC911D97E05CFF4F2081D6
:1011A0003181E054F040DF01AE5BBF4F8D919C91E7
:1011B00011972817390719F42FEF3FEF10C08D91C1
:1011C0009C911197E80FF91F20818D919C911197A7
:1011D00001968F73907011969C938E9330E0C901A5
:1011E0000895DC0191968C919197882339F054965B
:1011F000ED91FC915597808186FFF9CF91961C92D5
:101200000895CF93DF93EC01EE85FF85E05CFF4FFF
:1012100020813181E054F0402F5F3F4F2F733070B9
:10122000DF01AE5BBF4F8D919C9111972817390755
:10123000D1F3E05CFF4F80819181E054F040E80FF2
:10124000F91F6083EE85FF85E05CFF4F31832083CB
:10125000EE89FF89208181E090E00F8C02C0880F29
:10126000991F0A94E2F7282B208381E089A3EC8957
:10127000FD8980818064808381E090E0DF91CF915F
:101280000895109237021092360288EE93E0A0E0A3
:10129000B0E08093380290933902A0933A02B09361
:1012A0003B028FE391E090933502809334028CEA05
:1012B00091E0909341028093400280EF91E09093FF
:1012C00043028093420285EC90E090934502809324
:1012D000440284EC90E0909347028093460280ECB5
:1012E00090E0909349028093480281EC90E09093C3
:1012F0004B0280934A0282EC90E090934D028093DF
:101300004C0286EC90E090934F0280934E0284E072
:101310008093500283E08093510287E080935202D1
:1013200085E08093530281E0809354020895CF9327
:10133000DF930E9496060E94EB03C2ECD7E00E9466
:10134000A0002097E1F30E94C207F9CFCF92DF926D
:10135000EF92FF920F931F93CF93DF937C016B016A
:101360008A01C0E0D0E00FC0D6016D916D01D701B8
:10137000ED91FC910190F081E02DC7010995C80F16
:10138000D91F015010400115110571F7CE01DF91F1
:10139000CF911F910F91FF90EF90DF90CF90089524
:1013A000EF92FF920F931F938C01DC01ED91FC9162
:1013B0000190F081E02D6DE009957C01D801ED915F
:1013C000FC910190F081E02DC8016AE009959C0133
:1013D0002E0D3F1DC9011F910F91FF90EF900895B1
:1013E000CF93DF93EC016115710519F420E030E033
:1013F0000FC0DB010D900020E9F71197A61BB70B7A
:10140000E881F9810280F381E02DAD0109959C010D
:10141000C901DF91CF9108954F925F927F928F9291
:101420009F92AF92BF92CF92DF92EF92FF920F9373
:101430001F93DF93CF93CDB7DEB7A1970FB6F89484
:10144000DEBF0FBECDBF2C01742ECB01223008F4BD
:101450002AE019A231E2C32ED12CCC0EDD1E822E41
:101460009924AA24BB24672D752FA50194010E94FD
:101470002F0B79018A01C801B701A50194010E94CF
:10148000100B472D461B0894C108D1084A3014F4AC
:10149000405D01C0495CF6014083E114F10401059F
:1014A000110521F07E2C5F2DC801DDCFC201B601F0
:1014B0000E94F009A1960FB6F894DEBF0FBECDBF13
:1014C000CF91DF911F910F91FF90EF90DF90CF9020
:1014D000BF90AF909F908F907F905F904F900895B6
:1014E000CF92DF92EF92FF920F931F93CF93DF93F0
:1014F000EC016A017B012115310541F4E881F98194
:101500000190F081E02D642F09951FC02A3031052C
:10151000D1F477FF17C0E881F9810190F081E02DC7
:101520006DE209958C0144275527BA014C195D09D4
:101530006E097F09CE012AE00E940C0A9801280F4B
:10154000391F04C02AE00E940C0A9C01C901DF91E6
:10155000CF911F910F91FF90EF90DF90CF90089562
:10156000EF92FF920F931F937C010E94700A8C01EF
:10157000C7010E94D0099C01200F311FC9011F9192
:101580000F91FF90EF9008950E94F00908952F9217
:101590003F924F925F926F927F928F929F92AF9203
:1015A000BF92CF92DF92EF92FF920F931F93DF9340
:1015B000CF93CDB7DEB73B014C0119012A016D89EC
:1015C0007E898F89988D6A197B098C099D09621A19
:1015D000730A840A950AA40193010E94100BE21871
:1015E000F30804091509A80197010E94510B2A0D5F
:1015F0003B1D4C1D5D1DB901CA01CF91DF911F91AB
:101600000F91FF90EF90DF90CF90BF90AF909F90A1
:101610008F907F906F905F904F903F902F900895A4
:10162000629FD001739FF001829FE00DF11D649FC6
:10163000E00DF11D929FF00D839FF00D749FF00D52
:10164000659FF00D9927729FB00DE11DF91F639FF3
:10165000B00DE11DF91FBD01CF0111240895A1E2D4
:101660001A2EAA1BBB1BFD010DC0AA1FBB1FEE1F1C
:10167000FF1FA217B307E407F50720F0A21BB30B67
:10168000E40BF50B661F771F881F991F1A9469F7E3
:1016900060957095809590959B01AC01BD01CF013F
:1016A000089597FB092E05260ED057FD04D0D7DFED
:1016B0000AD0001C38F450954095309521953F4F45
:1016C0004F4F5F4F0895F6F790958095709561950F
:1016D0007F4F8F4F9F4F0895EE0FFF1F0590F4919E
:0816E000E02D0994F894FFCFFE
:1016E8004E6F207072657373757265004653523180
:1016F8003A00465352323A00465352333A00465360
:1017080052343A000100020003000100000000B159
:1017180004A6090000400014005400000000000165
:0C17280009A6099708C808A808F10800E5
:00000001FF
